:1000000050C000006CC00000F7C5000007C600002B
:1000100015C6000025C6000045C6000060C00000EF
:100020005EC000005CC000005AC000008FC6000027
:1000300056C0000054C0000052C0000050C0000074
:100040004EC000004CC000003EC4000048C000008C
:100050006BC4000044C0000042C0000040C000006B
:100060003EC000003CC000003FC6000038C0000099
:1000700036C0000034C0000032C0000030C00000B4
:100080002EC000002CC000002AC00000D505D805F5
:10009000DB05DE05E105E405E705EA05ED05F0050C
:1000A000F30511241FBECFEFD0E1DEBFCDBF11E0BD
:1000B000A0E0B1E0EAE6F1E100E00BBF02C007908A
:1000C0000D92A630B107D9F722E0A6E0B1E001C059
:1000D0001D92A739B207E1F7F0D70C94B30890CF7F
:1000E0001BBC1ABC19BC18BC8FE392E097BD86BD3F
:1000F00082EA8FBD8CE18EBD87B7806287BF08958D
:10010000E0910801F0910901309709F009950895EF
:10011000EFE3F1E087E491E020E03191230FE8176D
:10012000F907D9F7209347010895CF93DF93EC01A6
:10013000909359018093580145E050E0BC0188E458
:1001400091E0DAD7809148018234A1F082E4809373
:10015000480184E08093490187E080934A0110922E
:100160004B0182E080934C0145E050E0BE0188E401
:1001700091E0E3D7E0910601F0910701309719F083
:1001800080914901099580914C0180935A01809199
:100190004A0180934E01DF91CF91089590915A01C9
:1001A00090933F0190914E019093400180934101C3
:1001B0008091500180934201709343016093440108
:1001C0005093450140934601A3DF9ACF0895909143
:1001D0004F0180914E01981315C0EFE4F1E087E5DF
:1001E00091E020E03191230FE817F907D9F78091CA
:1001F0005701281749F040E050E0BA0181E0CEDF16
:1002000083E0089582E0089580E008950F931F939E
:10021000CF93DF931F92CDB7DEB72091530160914A
:100220005401862F90E0A0E0B0E0DC0199278827F8
:10023000B22B20915601822B20915501BC01CD019A
:10024000722B60933B0170933C0180933D0190932E
:100250003E01209150012D3009F4A5C2B0F42530A3
:10026000E1F148F4223091F1243009F4D5C2213073
:1002700009F0CBC224C0293009F4BAC12A3009F4EC
:100280004FC2263009F0C1C26FC0213109F48FC2BC
:1002900030F42F3009F440C108F4DFC086C22C319D
:1002A00009F489C220F4223109F483C2AEC228388D
:1002B00009F483C22E3F09F0A8C28EEFB2C240E01B
:1002C00050E0BA0184E66ADF81E0ABC240E050E072
:1002D000BA0184E663DF82E0A4C2209152012223A6
:1002E00039F040E050E0BA0184E058DF80E099C284
:1002F000209151012630E9F028F4243041F02530D6
:1003000079F02BC02730F1F02C3829F126C060930A
:1003100026017093270180932801909329011DC025
:1003200060932A0170932B0180932C0190932D01EF
:1003300014C060932E0170932F018093300190932D
:1003400031010BC06093320170933301809334010B
:100350009093350102C06093360140E050E0BA014D
:1003600084E61CDF80E05DC280915201882339F071
:1003700040E050E0BA0184E011DF80E052C2809199
:100380005101863051F138F4843009F43EC0C8F48C
:10039000813059F05BC08C3809F443C0843C09F4C7
:1003A00049C0873009F052C024C0409122015091C9
:1003B0002301609124017091250184E6EFDE80E045
:1003C00030C240912A0150912B0160912C01709113
:1003D0002D0184E6E3DE80E024C240912E0150919D
:1003E0002F01609130017091310184E6D7DE80E009
:1003F00018C24091320150913301609134017091E3
:10040000350184E6CBDE80E00CC24091260150919C
:100410002701609128017091290184E6BFDE80E008
:1004200000C24091360150E060E070E084E6B6DE44
:1004300080E0F7C140913701509138016091390156
:1004400070913A0184E6AADE80E0EBC140E050E022
:10045000BA0184E0A3DE80E0E4C1209152012130A2
:1004600009F4DCC118F0223041F04FC040E050E008
:10047000BA0183E093DE8EE0D4C120915101213096
:10048000B9F018F0223039F139C021E0672B682B20
:10049000692B09F420E080911D0120FB80F98093F5
:1004A0001D0140E050E0BA0184E678DE8EE0B9C17B
:1004B00021E0672B682B692B09F420E080911D0156
:1004C00020FB81F980931D0140E050E0BA0184E6F1
:1004D00065DE8EE0A6C121E0672B682B692B09F44D
:1004E00020E080911D0120FB82F980931D0140E0F6
:1004F00050E0BA0184E652DE8EE093C140E050E065
:10050000BA0183E04BDE8EE08CC140E050E0BA01DE
:1005100083E044DE8EE085C180915201813029F074
:1005200030F0823009F441C07BC18FE07AC1809104
:100530005101813081F028F08230C1F0833011F117
:100540002DC040914D01417050E060E070E084E6C4
:1005500025DE80E066C140914D014695417050E036
:1005600060E070E084E61ADE80E05BC140914D01FE
:1005700042FB442740F950E060E070E084E60EDE84
:1005800080E04FC140914D0143FB442740F950E0CA
:1005900060E070E084E602DE80E043C140E050E0CD
:1005A000BA0184E0FBDD80E03CC1809151018823E9
:1005B00019F0813059F015C040911D01417050E093
:1005C00060E070E084E6EADD80E02BC140911D012F
:1005D0004695417050E060E070E084E6DFDD80E049
:1005E00020C140E050E0BA0184E0D8DD80E019C1CC
:1005F00020915201222339F040E050E0BA0184E01A
:10060000CDDD80E00EC120915101213441F118F47B
:10061000203441F07EC0223409F43FC02C3409F468
:100620005AC077C00091480110E020E030E0601728
:1006300071078207930761F060934801198249812D
:100640002091580130915901C901840F911D64D541
:1006500040E050E0BA0184E6A1DD80E0E2C0009114
:10066000490110E020E030E060177107820793072E
:1006700069F06093490121E0298349812091580163
:1006800030915901C901840F911D46D540E050E0D9
:10069000BA0184E683DD80E0C4C000914A0110E025
:1006A00020E030E0601771078207930769F06093DC
:1006B0004A0122E029834981209158013091590152
:1006C000C901840F911D28D540E050E0BA0184E6AD
:1006D00065DD80E0A6C000914C0110E020E030E034
:1006E000601771078207930769F060934C0124E05B
:1006F000298349812091580130915901C901840F02
:10070000911D0AD540E050E0BA0184E647DD80E063
:1007100088C040E050E0BA0184E040DD80E081C064
:1007200080915201882339F040E050E0BA0184E022
:1007300035DD80E076C080915101813449F018F4B4
:10074000803409F129C0823461F08C3499F024C0DE
:100750004091490150E060E070E084E61FDD80E0F8
:1007600060C040914A0150E060E070E084E616DD30
:1007700080E057C040914C0150E060E070E084E6BA
:100780000DDD80E04EC04091480150E060E070E037
:1007900084E604DD80E045C040E050E0BA0184E03A
:1007A000FDDC80E03EC08DE03CC080E13AC081E1EC
:1007B00038C082E136C08CE134C080915101811192
:1007C0001CC080915A0180933F0188E080934001D2
:1007D000109241011092420184E18093430186E529
:1007E0008093440182E38093450180E38093460136
:1007F0008093470185DC80E014C040E450E360E270
:1008000070E184E6CBDC80E00CC040E050E0BA014F
:1008100082E0C4DC80E005C084E003C08EE001C05B
:1008200080E00F90DF91CF911F910F91089540E0EC
:1008300050E0BA0184E6B2CC089590911301809102
:100840001401981761F0909114019F5F9F70E92F38
:10085000F0E0EC50FE4F808190931401089580E009
:100860000895909113019F5F9F70E92FF0E0EC5085
:10087000FE4F808390931301089590911201E92F08
:10088000F0E0E55AFE4F80819F5F9093120108953A
:1008900080910B0180FD0AC080910B0181608093E3
:1008A0000B01909A10921201E8DF8CB90895882309
:1008B00011F0579A089557980895882311F0569A81
:1008C0000895569808951F920F920FB60F92112413
:1008D0000BB60F922F933F934F935F936F937F933A
:1008E0008F939F93AF93BF93EF93FF9385E0809394
:1008F0000D018BB190910C01892B80930C018CB16F
:10090000B0DFFF91EF91BF91AF919F918F917F9158
:100910006F915F914F913F912F910F900BBE0F9070
:100920000FBE0F901F9018951F920F920FB60F9247
:1009300011240BB60F922F933F934F935F936F93B6
:100940007F938F939F93AF93BF93EF93FF93809188
:100950000B0180FF0DC080911201893038F0809129
:100960000B018E7F80930B01909802C086DF8CB9BB
:10097000FF91EF91BF91AF919F918F917F916F9177
:100980005F914F913F912F910F900BBE0F900FBE33
:100990000F901F90189587E089B98AB188618AB94C
:1009A00081E085DF81E089DF10920C010895BF921C
:1009B000CF92DF92EF92FF920F931F93CF93DF932B
:1009C0009091100180911101981741F180910B01D4
:1009D00080FD24C0509111015F5F5F70852F90E012
:1009E0009C01220F331F220F331F220F331F820F50
:1009F000931F8C5F9D4F9C01275F3F4FFC01DF01E0
:100A0000A81BB90B4191A55ABE4F4C93E217F307AF
:100A1000B1F750931101109212013ADF80910B014E
:100A200083FD4AC08091130190911401891B8F703E
:100A3000893008F441C0B0900E0181E08B0D8F70B9
:100A4000B82EE82EF12CF701EE0FFF1FEE0FFF1F5F
:100A5000EE0FFF1FEE0DFF1DCF018C599E4F6C0155
:100A60008C01075F1F4FEC01E8DE8993C017D107A7
:100A7000D9F7F60190E080E02191920F8F5F8830E6
:100A8000D9F7F701EE0FFF1FEE0FFF1FEE0FFF1F4D
:100A9000EE0DFF1DEC59FE4F8085981308C0809124
:100AA0000B01886080930B01B0920E0105C080910C
:100AB0000B01806180930B01DF91CF911F910F910A
:100AC000FF90EF90DF90CF90BF90089580910D013F
:100AD000882341F080910D01815080930D01109287
:100AE0000A01089580910A01811107C080911301C4
:100AF0008093140181E080930A01089580910F0191
:100B00008F5F8F7090E09C01220F331F220F331FE5
:100B1000220F331F820F931F8C599E4F089580918F
:100B20000F018F5F8F7080930F0180910E01909164
:100B30000F01891B8F7029F490910B01977F90937F
:100B40000B010895FC01509110015F5F5F70852FCC
:100B500090E0DC01AA0FBB1FAA0FBB1FAA0FBB1F8F
:100B6000A80FB91FAC5FBD4F30E020E040814D932E
:100B70004191340F2F5F2830C9F7FC01EE0FFF1FA2
:100B8000EE0FFF1FEE0FFF1F8E0F9F1FFC01EC5F8C
:100B9000FD4F308750931001089590E08B30910500
:100BA00020F5FC01EA5BFF4FA1C28FE589B90895EA
:100BB0008FE389B908958FE289B908958FE189B9E2
:100BC000089587E189B908958FE089B908958BE088
:100BD00089B9089587E089B9089583E089B90895AE
:100BE00082E089B9089519B808958FE289B9089506
:100BF0008FE391E0A7CF08951F920F920FB60F9247
:100C000011248F93829B04C0DF9881E0809395022A
:100C10008F910F900FBE0F901F9018951F920F92FB
:100C20000FB60F921124819B02C0DF9802C08399F6
:100C3000DF980F900FBE0F901F9018951F920F9284
:100C40000FB60F9211248F93829B04C0DF9881E02E
:100C5000809395028F910F900FBE0F901F90189563
:100C60001F920F920FB60F9211248F939F93809132
:100C70001C01882381F080910401909105019093DB
:100C80001A018093190195B3809101018095892300
:100C900085BB10921C019F918F910F900FBE0F90FA
:100CA0001F9018951F920F920FB60F9211248F93D9
:100CB0009F9380911B01882381F080910201909184
:100CC0000301909318018093170195B3809100015F
:100CD0008095892385BB10921B019F918F910F9066
:100CE0000FBE0F901F9018951F920F920FB60F9284
:100CF00011248F939F938091190190911A0100976D
:100D000061F0019790931A0180931901892B29F4BE
:100D100095B380910101892B85BB8091170190913A
:100D20001801009761F001979093180180931701C3
:100D3000892B29F495B380910001892B85BB9F9164
:100D40008F910F900FBE0F901F9018951F920F92CA
:100D50000FB60F9211248F9381E0809316018F912B
:100D60000F900FBE0F901F90189580911601882349
:100D700051F010921601AADE80911501882319F016
:100D8000815080931501089580910B0183FF71C1FB
:100D9000B5DEDC01EFE4F1E088E591E02D912193EF
:100DA000E817F907D9F7BBDE80910B01877F8093A5
:100DB0000B010DDA81115DC129DA823121F08C310C
:100DC00009F4B8C0089580915101823009F442C0FD
:100DD00018F4813041F00895833009F453C0843011
:100DE00009F482C0089580915201882319F081305E
:100DF000B1F02AC040913B0150913C0160913D010E
:100E000070913E01413051056105710529F481E081
:100E100080931C010CCD089586E6C0C908954091C9
:100E20003B0150913C0160913D0170913E01413088
:100E300051056105710529F481E080931B01F7CC10
:100E4000089586E6ABC9089540E050E0BA0186E611
:100E5000A5C9089580915201811108C085B3909170
:100E60005301907F892B85BBE2CC0895813009F036
:100E700000C185B390915301907F9095892385BBE4
:100E8000D6CC089580915201811113C040913B014D
:100E900050913C0160913D0170913E01B62FA52F0C
:100EA000942F8827909305018093040184E676C9E6
:100EB0000895813099F440913B0150913C0160913B
:100EC0003D0170913E01B62FA52F942F8827909356
:100ED00003018093020184E661C9089540E050E077
:100EE000BA0186E65BC908958091520181110DC057
:100EF0001092010140913B0150913C0160913D01F4
:100F000070913E0184E64AC90895813069F41092D7
:100F1000000140913B0150913C0160913D01709175
:100F20003E0184E63BC9089540E050E0BA0186E600
:100F300035C9089580915101882319F0843019F141
:100F400093C080915201811108C040B3447050E0B9
:100F500060E070E084E622C90895813071F480B3C6
:100F600040B38870427050E0480F511D662757FD0E
:100F70006095762F84E612C9089540E050E0BA01EA
:100F800086E60CC9089580915201811172C041E03A
:100F900050E060E070E082E301D980B383992FC014
:100FA00081FD2DC041E050E060E070E08AE5F6D8B8
:100FB00080913B0190913C01A0913D01B0913E0197
:100FC00081309105A105B10541F4DF9A41E050E07F
:100FD00060E070E088E2E2C80895892B8A2B8B2BB1
:100FE00041F4DF9841E050E060E070E089E2D6C86B
:100FF000089540E050E0BA0186E6D0C8089541E087
:1010000050E060E070E08BE5C9D8829927C08091FC
:101010003B0190913C01A0913D01B0913E01813096
:101020009105A105B10541F4DF9A41E050E060E08F
:1010300070E08AE2B3C80895892B8A2B8B2B41F488
:10104000DF9841E050E060E070E08BE2A7C80895CF
:1010500040E050E0BA0186E6A1C8089540E050E0C3
:10106000BA0186E69BC8089540E050E0BA0186E6E2
:1010700095C8089581B3817F81BB8AB38F688ABB8D
:101080008BB38E608BBBEAE6F0E080818460808366
:1010900080818061808380818064808310928B0056
:1010A00089E080938A0082EC95E09093870080939A
:1010B000860089B78E6389BF0895D69A889ADADF49
:1010C0000FD869DC8DEC95E09093070180930601C1
:1010D00088EF95E0909309018093080180E190E00A
:1010E00024D8789442DE63DC4FDEFCCFEE0FFF1F86
:1010F0000590F491E02D0994DC01CB01FC01E1990C
:10110000FECF06C0FFBBEEBBE09A31960DB20D924A
:1011100041505040B8F70895262FE199FECF9FBB6C
:101120008EBBE09A01970DB2021631F02DBB0FB6BF
:10113000F894E29AE19A0FBE0895DC01CB0102C057
:101140002D9105D041505040D8F70895262FE199B0
:10115000FECF9FBB8EBB2DBB0FB6F894E29AE19AEF
:0A1160000FBE01960895F894FFCF2A
:06116A000C03F401F40186
:00000001FF
