S00E00004C49435F42422E737265635B
S113000050C000006BC00000EBC50000FBC5000041
S113001008C6000018C6000038C600005FC0000013
S11300205DC000005BC0000059C0000082C6000033
S11300304EC6000053C0000051C000004FC0000075
S11300404DC000004BC0000032C4000047C0000097
S11300505FC4000043C0000041C000003FC0000076
S11300603DC000003BC0000039C0000037C00000A4
S113007035C0000033C0000031C000002FC00000B4
S11300802DC000002BC0000029C00000C905CC050C
S1130090CF05D205D505D805DB05DE05E105E40568
S11300A0E70511241FBECFEFD0E1DEBFCDBF11E0C5
S11300B0A0E0B1E0E2E8F0E100E00BBF02C007908D
S11300C00D92A630B107D9F722E0A6E0B1E001C055
S11300D01D92A739B207E1F77DD7D1C791CF1BBCD9
S11300E01ABC19BC18BC8FE392E097BD86BD82EAA6
S11300F08FBD8CE18EBD87B7806287BF0895E09184
S11301000801F0910901309709F009950895EFE38A
S1130110F1E087E491E020E03191230FE817F9073B
S1130120D9F7209347010895CF93DF93EC0190937F
S113013059018093580145E050E0BC0188E491E006
S113014067D7809148018234A1F082E4809348010A
S113015084E08093490187E080934A0110924B0127
S113016082E080934C0145E050E0BE0188E491E0D8
S113017070D7E0910601F0910701309719F0809152
S11301804901099580914C0180935A0180914A015B
S113019080934E01DF91CF91089590915A019093ED
S11301A03F0190914E0190934001809341018091D1
S11301B05001809342017093430160934401509332
S11301C0450140934601A3DF9ACF089590914F01D2
S11301D080914E01981315C0EFE4F1E087E591E0BA
S11301E020E03191230FE817F907D9F780915701DF
S11301F0281749F040E050E0BA0181E0CEDF83E007
S1130200089582E0089580E008950F931F93CF939B
S1130210DF931F92CDB7DEB7209153016091540153
S1130220862F90E0A0E0B0E0DC0199278827B22B6C
S113023020915601822B20915501BC01CD01722BD6
S113024060933B0170933C0180933D0190933E0188
S1130250209150012A3009F461C288F4243009F451
S1130260CFC228F4213019F1223041F1C2C2263024
S113027009F472C050F1293009F4B8C1BAC220316E
S113028009F4AEC148F42E3009F4DFC008F03CC1D3
S11302902D3009F4A9C1ADC2283809F482C22E3F19
S11302A021F0213109F0A5C29DC18EEFAEC240E01C
S11302B050E0BA0184E671DF81E0A7C240E050E07B
S11302C0BA0184E66ADF82E0A0C2209152012223AF
S11302D039F040E050E0BA0184E05FDF80E095C28D
S11302E0209151012630E9F028F4243041F02530E2
S11302F079F02BC02730F1F02C3829F126C0609317
S113030026017093270180932801909329011DC031
S113031060932A0170932B0180932C0190932D01FB
S113032014C060932E0170932F0180933001909339
S113033031010BC060933201709333018093340117
S11303409093350102C06093360140E050E0BA0159
S113035084E623DF80E059C280915201882339F07A
S113036040E050E0BA0184E018DF80E04EC28091A2
S11303705101863051F138F4843009F43EC0C8F498
S1130380813059F05BC08C3809F443C0843C09F4D3
S113039049C0873009F052C024C0409122015091D5
S11303A02301609124017091250184E6F6DE80E04A
S11303B02CC240912A0150912B0160912C01709123
S11303C02D0184E6EADE80E020C240912E015091A6
S11303D02F01609130017091310184E6DEDE80E00E
S11303E014C24091320150913301609134017091F3
S11303F0350184E6D2DE80E008C2409126015091A6
S11304002701609128017091290184E6C6DE80E00D
S1130410FCC14091360150E060E070E084E6BDDE4E
S113042080E0F3C140913701509138016091390166
S113043070913A0184E6B1DE80E0E7C140E050E02B
S1130440BA0184E0AADE80E0E0C1209152012130AB
S113045009F4D8C118F0223041F04FC040E050E018
S1130460BA0183E09ADE8EE0D0C12091510121309F
S1130470B9F018F0223039F139C021E0672B682B2C
S1130480692B09F420E080911D0120FB80F9809301
S11304901D0140E050E0BA0184E67FDE8EE0B5C184
S11304A021E0672B682B692B09F420E080911D0162
S11304B020FB81F980931D0140E050E0BA0184E6FD
S11304C06CDE8EE0A2C121E0672B682B692B09F456
S11304D020E080911D0120FB82F980931D0140E002
S11304E050E0BA0184E659DE8EE08FC140E050E06E
S11304F0BA0183E052DE8EE088C140E050E0BA01E8
S113050083E04BDE8EE081C180915201813029F07D
S113051030F0823009F441C077C18FE076C1809118
S11305205101813081F028F08230C1F0833011F123
S11305302DC040914D01417050E060E070E084E6D0
S11305402CDE80E062C140914D014695417050E03F
S113055060E070E084E621DE80E057C140914D0107
S113056042FB442740F950E060E070E084E615DE89
S113057080E04BC140914D0143FB442740F950E0DA
S113058060E070E084E609DE80E03FC140E050E0D6
S1130590BA0184E002DE80E038C1809151018823F1
S11305A019F0813059F015C040911D01417050E09F
S11305B060E070E084E6F1DD80E027C140911D0138
S11305C04695417050E060E070E084E6E6DD80E04E
S11305D01CC140E050E0BA0184E0DFDD80E015C1D9
S11305E080E113C181E111C18DE00FC1209152015D
S11305F0222339F040E050E0BA0184E0CEDD80E00F
S113060004C120915101213441F118F4203441F006
S11306107EC0223409F43FC02C3409F45AC077C098
S11306200091480110E020E030E060177107820774
S1130630930761F060934801198249812091580120
S113064030915901C901840F911DF2D440E050E06A
S1130650BA0184E6A2DD80E0D8C00091490110E02F
S113066020E030E0601771078207930769F0609318
S1130670490121E029834981209158013091590190
S1130680C901840F911DD4D440E050E0BA0184E63E
S113069084DD80E0BAC000914A0110E020E030E03F
S11306A0601771078207930769F060934A0122E09B
S11306B0298349812091580130915901C901840F3E
S11306C0911DB6D440E050E0BA0184E666DD80E0D6
S11306D09CC000914C0110E020E030E060177107ED
S11306E08207930769F060934C0124E029834981D0
S11306F02091580130915901C901840F911D98D45A
S113070040E050E0BA0184E648DD80E07EC040E08D
S113071050E0BA0184E041DD80E077C0809152016D
S1130720882339F040E050E0BA0184E036DD80E00F
S11307306CC080915101813449F018F4803409F17E
S113074029C0823461F08C3499F024C0409149016D
S113075050E060E070E084E620DD80E056C0409127
S11307604A0150E060E070E084E617DD80E04DC0AF
S113077040914C0150E060E070E084E60EDD80E0E2
S113078044C04091480150E060E070E084E605DD3B
S113079080E03BC040E050E0BA0184E0FEDC80E051
S11307A034C08091510181111CC080915A01809301
S11307B03F0188E080934001109241011092420170
S11307C084E18093430186E58093440182E380932E
S11307D0450180E3809346018093470190DC80E0EB
S11307E014C040E450E360E270E184E6D6DC80E0CB
S11307F00CC040E050E0BA0182E0CFDC80E005C0EC
S113080084E003C08EE001C080E00F90DF91CF91BF
S11308101F910F91089540E050E0BA0184E6BDCCE9
S113082008959091130180911401981761F09091AB
S113083014019F5F9F70E92FF0E0EC50FE4F808120
S113084090931401089580E00895909113019F5F9F
S11308509F70E92FF0E0EC50FE4F808390931301DA
S1130860089590911201E92FF0E0E55AFE4F80813E
S11308709F5F90931201089580910B0180FD0AC03F
S113088080910B01816080930B01909A1092120168
S1130890E8DF8CB90895882311F0579A0895579882
S11308A00895882311F0569A0895569808951F9232
S11308B00F920FB60F9211240BB60F922F933F9302
S11308C04F935F936F937F938F939F93AF93BF9354
S11308D0EF93FF9385E080930D018BB190910C0110
S11308E0892B80930C018CB1B0DFFF91EF91BF9104
S11308F0AF919F918F917F916F915F914F913F91B4
S11309002F910F900BBE0F900FBE0F901F90189554
S11309101F920F920FB60F9211240BB60F922F93C2
S11309203F934F935F936F937F938F939F93AF9373
S1130930BF93EF93FF9380910B0180FF0DC08091D3
S11309401201893038F080910B018E7F80930B0166
S1130950909802C086DF8CB9FF91EF91BF91AF915F
S11309609F918F917F916F915F914F913F912F91C3
S11309700F900BBE0F900FBE0F901F90189587E03D
S113098089B98AB188618AB981E085DF81E089DF2C
S113099010920C010895BF92CF92DF92EF92FF92D2
S11309A00F931F93CF93DF939091100180911101C6
S11309B0981741F180910B0180FD24C050911101E1
S11309C05F5F5F70852F90E09C01220F331F220F21
S11309D0331F220F331F820F931F8C5F9D4F9C0187
S11309E0275F3F4FFC01DF01A81BB90B4191A55ABA
S11309F0BE4F4C93E217F307B1F7509311011092D5
S1130A0012013ADF80910B0183FD4AC080911301EA
S1130A1090911401891B8F70893008F441C0B09003
S1130A200E0181E08B0D8F70B82EE82EF12CF701AA
S1130A30EE0FFF1FEE0FFF1FEE0FFF1FEE0DFF1D4A
S1130A40CF018C599E4F6C018C01075F1F4FEC0145
S1130A50E8DE8993C017D107D9F7F60190E080E06A
S1130A602191920F8F5F8830D9F7F701EE0FFF1FA6
S1130A70EE0FFF1FEE0FFF1FEE0DFF1DEC59FE4F93
S1130A808085981308C080910B01886080930B01C6
S1130A90B0920E0105C080910B01806180930B011F
S1130AA0DF91CF911F910F91FF90EF90DF90CF9046
S1130AB0BF90089580910D01882341F080910D012C
S1130AC0815080930D0110920A01089580910A01CA
S1130AD0811107C0809113018093140181E08093F8
S1130AE00A01089580910F018F5F8F7090E09C013F
S1130AF0220F331F220F331F220F331F820F931F26
S1130B008C599E4F089580910F018F5F8F70809351
S1130B100F0180910E0190910F01891B8F7029F4B0
S1130B2090910B01977F90930B010895FC015091D4
S1130B3010015F5F5F70852F90E0DC01AA0FBB1F7F
S1130B40AA0FBB1FAA0FBB1FA80FB91FAC5FBD4FD5
S1130B5030E020E040814D934191340F2F5F2830E5
S1130B60C9F7FC01EE0FFF1FEE0FFF1FEE0FFF1F73
S1130B708E0F9F1FFC01EC5FFD4F308750931001D7
S1130B80089590E08B30910520F5FC01EA5BFF4F5E
S1130B9039C28FE589B908958FE389B908958FE241
S1130BA089B908958FE189B9089587E189B90895CC
S1130BB08FE089B908958BE089B9089587E089B9F0
S1130BC0089583E089B9089582E089B9089519B830
S1130BD008958FE289B908958FE391E0A7CF08952E
S1130BE01F920F920FB60F9211248F93829904C013
S1130BF0DF9A81E0809395028F910F900FBE0F9042
S1130C001F9018951F920F920FB60F9211248F9375
S1130C1081E0809396028F910F900FBE0F901F90EA
S1130C2018951F920F920FB60F9211248F938299E9
S1130C3004C0DF9A81E0809395028F910F900FBEDC
S1130C400F901F9018951F920F920FB60F921124B8
S1130C508F939F9380911C01882381F080910401DC
S1130C609091050190931A018093190195B3809195
S1130C7001018095892385BB10921C019F918F915E
S1130C800F900FBE0F901F9018951F920F920FB6E2
S1130C900F9211248F939F9380911B01882381F0DD
S1130CA080910201909103019093180180931701A0
S1130CB095B3809100018095892385BB10921B0117
S1130CC09F918F910F900FBE0F901F9018951F92B8
S1130CD00F920FB60F9211248F939F938091190155
S1130CE090911A01009761F0019790931A018093F3
S1130CF01901892B29F495B380910101892B85BBB6
S1130D008091170190911801009761F001979093D9
S1130D10180180931701892B29F495B38091000160
S1130D20892B85BB9F918F910F900FBE0F901F90C1
S1130D3018951F920F920FB60F9211248F9381E092
S1130D40809316018F910F900FBE0F901F901895EE
S1130D5080911601882381F010921601ABDE8091F8
S1130D601501882349F0815080931501811104C035
S1130D7098B380E1892788BB089580910B0183FF94
S1130D800AC1B0DEDC01EFE4F1E088E591E02D91E9
S1130D902193E817F907D9F7B6DE80910B01877F15
S1130DA080930B0113DA8111F6C02FDA823121F01E
S1130DB08C3109F4B8C0089580915101823009F44E
S1130DC042C018F4813041F00895833009F453C0CF
S1130DD0843009F482C0089580915201882319F067
S1130DE08130B1F02AC040913B0150913C016091A7
S1130DF03D0170913E01413051056105710529F4B1
S1130E0081E080931C0107CD089586E6C6C9089544
S1130E1040913B0150913C0160913D0170913E0134
S1130E20413051056105710529F481E080931B016E
S1130E30F2CC089586E6B1C9089540E050E0BA01C5
S1130E4086E6ABC9089580915201811108C085B32B
S1130E5090915301907F892B85BBDDCC089581301F
S1130E6009F099C085B390915301907F909589239F
S1130E7085BBD1CC089580915201811113C040915A
S1130E803B0150913C0160913D0170913E01B62FB0
S1130E90A52F942F8827909305018093040184E65D
S1130EA07CC90895813099F440913B0150913C01F3
S1130EB060913D0170913E01B62FA52F942F882794
S1130EC0909303018093020184E667C9089540E08A
S1130ED050E0BA0186E661C90895809152018111FA
S1130EE00DC01092010140913B0150913C01609171
S1130EF03D0170913E0184E650C90895813069F442
S1130F001092000140913B0150913C0160913D01E0
S1130F1070913E0184E641C9089540E050E0BA0171
S1130F2086E63BC9089580915101813079F580911D
S1130F3052018130E1F4819902C0839B11C0829BEC
S1130F4007C0DF9A40E050E0BA0184E626C908955C
S1130F50DF9841E050E060E070E08CE01EC9089545
S1130F60DF9A40E050E0BA0184E617C90895811180
S1130F7007C0DF9840E050E0BA0184E60EC9089546
S1130F8040E050E0BA0186E608C9089540E050E028
S1130F90BA0186E602C9089581B3816F81BB8AB321
S1130FA08F688ABB8FEF8BBBEAE6F0E080818C60B0
S1130FB080838081806380838081806C80831FBC78
S1130FC089E08EBD82EC95E09BBD8ABD89B78E63B6
S1130FD089BF0895889AE0DF82D8D1DC81EC95E05E
S1130FE090930701809306018CEE95E0909309019C
S1130FF08093080180E190E097D87894A9DECBDC57
S1131000BCDEFCCFEE0FFF1F0590F491E02D099498
S1131010DC01CB01FC01E199FECF06C0FFBBEEBBB6
S1131020E09A31960DB20D9241505040B8F70895B0
S1131030262FE199FECF9FBB8EBBE09A01970DB29C
S1131040021631F02DBB0FB6F894E29AE19A0FBE66
S11310500895DC01CB0102C02D9105D041505040D0
S1131060D8F70895262FE199FECF9FBB8EBB2DBBE9
S11310700FB6F894E29AE19A0FBE01960895F89497
S1051080FFCF9C
S10910820C03F401F4016B
S9030000FC
