S00E00004C49435F42422E737265635B
S113000050C000006BC0000069C0000067C0000061
S113001065C0000063C0000061C000005FC0000054
S11300205DC000005BC0000059C00000D3C50000E3
S113003055C0000053C0000051C000004FC0000074
S11300404DC000004BC000002CC4000047C000009D
S113005059C4000043C0000041C000003FC000007C
S11300603DC000003BC0000039C0000037C00000A4
S113007035C0000033C0000031C000002FC00000B4
S11300802DC000002BC0000029C00000C305C60518
S1130090C905CC05CF05D205D505D805DB05DE0598
S11300A0E10511241FBECFEFD0E1DEBFCDBF11E0CB
S11300B0A0E0B1E0E2E0FDE000E00BBF02C0079089
S11300C00D92A030B107D9F722E0A0E0B1E001C061
S11300D01D92A838B207E1F7BBD511C691CF1BBC5E
S11300E01ABC19BC18BC8FE392E097BD86BD82EAA6
S11300F08FBD8CE18EBD87B7806287BF0895E09184
S11301000201F0910301309709F009950895E3E3A2
S1130110F1E08BE391E020E03191230FE817F90738
S1130120D9F720933B010895CF93DF93EC0190938B
S11301304D0180934C0145E050E0BC018CE391E01B
S1130140A7D580913C018134A1F082E480933C01E5
S113015084E080933D0185E080933E0110923F014D
S113016082E08093400145E050E0BE018CE391E0E1
S1130170B0D5E0910001F0910101309719F0809120
S11301803D0109958091400180934E0180913E018B
S113019080934201DF91CF91089590914E01909305
S11301A03301909142019093340180933501809101
S11301B04401809336017093370160933801509362
S11301C0390140933A01A3DF9ACF089590914301F6
S11301D080914201981315C0E3E4F1E08BE491E0CF
S11301E020E03191230FE817F907D9F780914B01EB
S11301F0281749F040E050E0BA0181E0CEDF83E007
S1130200089582E0089580E008950F931F93CF939B
S1130210DF931F92CDB7DEB720914701609148016B
S1130220862F90E0A0E0B0E0DC0199278827B22B6C
S113023020914A01822B20914901BC01CD01722BEE
S113024060932F01709330018093310190933201B8
S1130250209144012A3009F461C288F4243009F45D
S1130260CFC228F4213019F1223041F1C2C2263024
S113027009F472C050F1293009F4B8C1BAC220316E
S113028009F4AEC148F42E3009F4DFC008F03CC1D3
S11302902D3009F4A9C1ADC2283809F482C22E3F19
S11302A021F0213109F0A5C29DC18EEFAEC240E01C
S11302B050E0BA0184E671DF81E0A7C240E050E07B
S11302C0BA0184E66ADF82E0A0C2209146012223BB
S11302D039F040E050E0BA0184E05FDF80E095C28D
S11302E0209145012630E9F028F4243041F02530EE
S11302F079F02BC02730F1F02C3829F126C0609317
S11303001A0170931B0180931C0190931D011DC061
S113031060931E0170931F0180932001909321012B
S113032014C060932201709323018093240190935D
S113033025010BC060932601709327018093280147
S11303409093290102C060932A0140E050E0BA0171
S113035084E623DF80E059C280914601882339F086
S113036040E050E0BA0184E018DF80E04EC28091A2
S11303704501863051F138F4843009F43EC0C8F4A4
S1130380813059F05BC08C3809F443C0843C09F4D3
S113039049C0873009F052C024C0409116015091E1
S11303A01701609118017091190184E6F6DE80E06E
S11303B02CC240911E0150911F0160912001709147
S11303C0210184E6EADE80E020C2409122015091BE
S11303D02301609124017091250184E6DEDE80E032
S11303E014C2409126015091270160912801709117
S11303F0290184E6D2DE80E008C240911A015091BE
S11304001B0160911C0170911D0184E6C6DE80E031
S1130410FCC140912A0150E060E070E084E6BDDE5A
S113042080E0F3C140912B0150912C0160912D018A
S113043070912E0184E6B1DE80E0E7C140E050E037
S1130440BA0184E0AADE80E0E0C1209146012130B7
S113045009F4D8C118F0223041F04FC040E050E018
S1130460BA0183E09ADE8EE0D0C1209145012130AB
S1130470B9F018F0223039F139C021E0672B682B2C
S1130480692B09F420E08091110120FB80F980930D
S1130490110140E050E0BA0184E67FDE8EE0B5C190
S11304A021E0672B682B692B09F420E0809111016E
S11304B020FB81F98093110140E050E0BA0184E609
S11304C06CDE8EE0A2C121E0672B682B692B09F456
S11304D020E08091110120FB82F98093110140E01A
S11304E050E0BA0184E659DE8EE08FC140E050E06E
S11304F0BA0183E052DE8EE088C140E050E0BA01E8
S113050083E04BDE8EE081C180914601813029F089
S113051030F0823009F441C077C18FE076C1809118
S11305204501813081F028F08230C1F0833011F12F
S11305302DC040914101417050E060E070E084E6DC
S11305402CDE80E062C1409141014695417050E04B
S113055060E070E084E621DE80E057C14091410113
S113056042FB442740F950E060E070E084E615DE89
S113057080E04BC14091410143FB442740F950E0E6
S113058060E070E084E609DE80E03FC140E050E0D6
S1130590BA0184E002DE80E038C1809145018823FD
S11305A019F0813059F015C040911101417050E0AB
S11305B060E070E084E6F1DD80E027C14091110144
S11305C04695417050E060E070E084E6E6DD80E04E
S11305D01CC140E050E0BA0184E0DFDD80E015C1D9
S11305E080E113C181E111C18DE00FC12091460169
S11305F0222339F040E050E0BA0184E0CEDD80E00F
S113060004C120914501213441F118F4203441F012
S11306107EC0223409F43FC02C3409F45AC077C098
S113062000913C0110E020E030E060177107820780
S1130630930761F060933C011982498120914C0138
S113064030914D01C901840F911D32D340E050E037
S1130650BA0184E6A2DD80E0D8C000913D0110E03B
S113066020E030E0601771078207930769F0609318
S11306703D0121E02983498120914C0130914D01B4
S1130680C901840F911D14D340E050E0BA0184E6FF
S113069084DD80E0BAC000913E0110E020E030E04B
S11306A0601771078207930769F060933E0122E0A7
S11306B02983498120914C0130914D01C901840F56
S11306C0911DF6D240E050E0BA0184E666DD80E098
S11306D09CC00091400110E020E030E060177107F9
S11306E08207930769F06093400124E029834981DC
S11306F020914C0130914D01C901840F911DD8D234
S113070040E050E0BA0184E648DD80E07EC040E08D
S113071050E0BA0184E041DD80E077C08091460179
S1130720882339F040E050E0BA0184E036DD80E00F
S11307306CC080914501813449F018F4803409F18A
S113074029C0823461F08C3499F024C040913D0179
S113075050E060E070E084E620DD80E056C0409127
S11307603E0150E060E070E084E617DD80E04DC0BB
S11307704091400150E060E070E084E60EDD80E0EE
S113078044C040913C0150E060E070E084E605DD47
S113079080E03BC040E050E0BA0184E0FEDC80E051
S11307A034C08091450181111CC080914E01809319
S11307B0330188E0809334011092350110923601A0
S11307C084E18093370186E58093380182E3809346
S11307D0390180E380933A0180933B0190DC80E00F
S11307E014C040E450E360E270E184E6D6DC80E0CB
S11307F00CC040E050E0BA0182E0CFDC80E005C0EC
S113080084E003C08EE001C080E00F90DF91CF91BF
S11308101F910F91089590910D0180910E019817E9
S113082061F090910E019F5F9F70E92FF0E0E85115
S1130830FE4F808190930E01089580E00895909179
S11308400D019F5F9F70E92FF0E0E851FE4F808318
S113085090930D01089590910C01E92FF0E0E15B74
S1130860FE4F80819F5F90930C0108958091050154
S113087080FD0AC080910501816080930501909AF2
S113088010920C01E8DF8CB90895882311F0579A6F
S1130890089557980895882311F0569A0895569804
S11308A008951F920F920FB60F9211240BB60F9258
S11308B02F933F934F935F936F937F938F939F9364
S11308C0AF93BF93EF93FF9385E0809307018BB1C0
S11308D090910601892B809306018CB1B0DFFF91C2
S11308E0EF91BF91AF919F918F917F916F915F91A4
S11308F04F913F912F910F900BBE0F900FBE0F9011
S11309001F9018951F920F920FB60F9211240BB6D9
S11309100F922F933F934F935F936F937F938F9394
S11309209F93AF93BF93EF93FF938091050180FF53
S11309300DC080910C01893038F0809105018E7FC3
S113094080930501909802C086DF8CB9FF91EF91E6
S1130950BF91AF919F918F917F916F915F914F91D3
S11309603F912F910F900BBE0F900FBE0F901F90D1
S1130970189587E089B98AB188618AB981E085DFF1
S113098081E089DF109206010895BF92CF92DF9231
S1130990EF92FF920F931F93CF93DF9390910A01ED
S11309A080910B01981741F18091050180FD24C0CD
S11309B050910B015F5F5F70852F90E09C01220FC7
S11309C0331F220F331F220F331F820F931F8850B0
S11309D09E4F9C01275F3F4FFC01DF01A81BB90B11
S11309E04191A15BBE4F4C93E217F307B1F75093CB
S11309F00B0110920C013ADF8091050183FD4AC07E
S1130A0080910D0190910E01891B8F70893008F43B
S1130A1041C0B090080181E08B0D8F70B82EE82E94
S1130A20F12CF701EE0FFF1FEE0FFF1FEE0FFF1F5C
S1130A30EE0DFF1DCF01885A9E4F6C018C01075F9C
S1130A401F4FEC01E8DE8993C017D107D9F7F601EF
S1130A5090E080E02191920F8F5F8830D9F7F70101
S1130A60EE0FFF1FEE0FFF1FEE0FFF1FEE0DFF1D1A
S1130A70E85AFE4F8085981308C08091050188606C
S1130A8080930501B092080105C080910501806141
S1130A9080930501DF91CF911F910F91FF90EF900B
S1130AA0DF90CF90BF90089580910701882341F093
S1130AB080910701815080930701109204010895E9
S1130AC080910401811107C080910D0180930E0172
S1130AD081E0809304010895809109018F5F8F70F4
S1130AE090E09C01220F331F220F331F220F331F6C
S1130AF0820F931F885A9E4F0895809109018F5F3A
S1130B008F70809309018091080190910901891BDC
S1130B108F7029F490910501977F909305010895B2
S1130B20FC0150910A015F5F5F70852F90E0DC014A
S1130B30AA0FBB1FAA0FBB1FAA0FBB1FA80FB91F69
S1130B40A850BE4F30E020E040814D934191340FD6
S1130B502F5F2830C9F7FC01EE0FFF1FEE0FFF1FB8
S1130B60EE0FFF1F8E0F9F1FFC01E850FE4F3087D2
S1130B7050930A01089590E08B30910520F5FC0113
S1130B80EA5BFF4F7FC08FE589B908958FE389B988
S1130B9008958FE289B908958FE189B9089587E1AD
S1130BA089B908958FE089B908958BE089B90895CA
S1130BB087E089B9089583E089B9089582E089B905
S1130BC0089519B808958FE289B9089583E391E0EF
S1130BD0A7CF08951F920F920FB60F9211248F93EF
S1130BE081E0809310018F910F900FBE0F901F90A2
S1130BF0189580911001882381F01092100154DF20
S1130C0080910F01882349F0815080930F01811155
S1130C1004C098B380E1892788BB089580910501B9
S1130C2083FF15C059DFDC01E3E4F1E08CE491E0DB
S1130C302D912193E817F907D9F75FDF809105011A
S1130C40877F80930501C2DA811101C0DECA08954D
S1130C50D69ADE98889A43DA8CDEDE9A8BEB95E09E
S1130C60909301018093000186EE95E09093030137
S1130C708093020180E190E057DA7894BADF85DE50
S1130C80CDDFFCCFEE0FFF1F0590F491E02D09940A
S1130C90DC01CB01FC01E199FECF06C0FFBBEEBB3A
S1130CA0E09A31960DB20D9241505040B8F7089534
S1130CB0262FE199FECF9FBB8EBBE09A01970DB220
S1130CC0021631F02DBB0FB6F894E29AE19A0FBEEA
S1130CD00895DC01CB0102C02D9105D04150504054
S1130CE0D8F70895262FE199FECF9FBB8EBB2DBB6D
S1130CF00FB6F894E29AE19A0FBE01960895F8941B
S1050D00FFCF1F
S9030000FC
